:100000000C946C000C9494000C9494000C94940048
:100010000C9494000C9494000C9494000C94940010
:100020000C9494000C9494000C9494000C94940000
:100030000C9494000C9494000C9494000C949400F0
:100040000C946A030C9494000C9438030C941203DF
:100050000C9494000C9494000C9494000C949400D0
:100060000C9494000C9494009B04B104B304C50454
:10007000DB04E904EF04F5040F052105000000008E
:10008000240027002A0000000000250028002B0083
:1000900000000000230026002900040404040404D6
:1000A0000404020202020202030303030303010227
:1000B00004081020408001020408102001020408F6
:1000C00010200000000800020100000304070000E7
:1000D000000000000000770511241FBECFEFD8E01C
:1000E000DEBFCDBF11E0A0E0B1E0E6EAFBE002C078
:1000F00005900D92A631B107D9F721E0A6E1B1E054
:1001000001C01D92A43CB207E1F710E0CCE6D0E0BC
:1001100004C02197FE010E94C605CB36D107C9F75E
:100120000E94B4030C94D1050C940000CF92DF928E
:10013000EF92FF920F931F93CF93DF936C017A019D
:100140008B01C0E0D0E0CE15DF0581F0D8016D91C4
:100150008D01D601ED91FC910190F081E02DC60159
:100160000995892B11F02196EECF7E01C701DF9111
:10017000CF911F910F91FF90EF90DF90CF90089556
:10018000089580E090E00895FC01538D448D252F63
:1001900030E0842F90E0821B930B541710F0CF9621
:1001A000089501970895FC01918D828D981761F053
:1001B000828DDF01A80FB11D5D968C91928D9F5F9E
:1001C0009F73928F90E008958FEF9FEF0895FC0149
:1001D000918D828D981731F0828DE80FF11D858DFC
:1001E00090E008958FEF9FEF0895FC01918D228D8F
:1001F000892F90E0805C9F4F821B91098F73992714
:10020000089587E291E00E94F50021E0892B09F42E
:1002100020E0822F0895FC01848DDF01A80FB11D1D
:10022000A35ABF4F2C91848D90E001968F7399272C
:10023000848FA689B7892C93A089B1898C9183700A
:1002400080648C93938D848D981306C00288F38903
:10025000E02D80818F7D80830895EF92FF920F9330
:100260001F93CF93DF93EC0181E0888F9B8D8C8D62
:10027000981305C0E889F989808185FD26C0F62E8E
:100280000B8D10E00F5F1F4F0F731127E02E8C8D29
:10029000E8120CC00FB607FCFACFE889F989808113
:1002A00085FFF5CFCE010E940B01F1CF8B8DFE01B2
:1002B000E80FF11DE35AFF4FF0829FB7F8940B8FC0
:1002C000EA89FB89808180620AC09FB7F894EE8931
:1002D000FF896083E889F9898081837080648083E5
:1002E0009FBF81E090E0DF91CF911F910F91FF9030
:1002F000EF900895CF93DF93EC01888D8823C9F0A8
:10030000EA89FB89808185FD05C0A889B9898C911E
:1003100086FD0FC00FB607FCF5CF808185FFF2CFB9
:10032000A889B9898C9185FFEDCFCE010E940B0180
:10033000E7CFDF91CF91089580E090E0892B29F0FD
:100340000E94010181110C9400000895833081F016
:1003500028F4813099F08230A1F008958730A9F017
:100360008830B9F08430D1F4809180008F7D03C053
:10037000809180008F7780938000089584B58F7777
:1003800002C084B58F7D84BD08958091B0008F77C1
:1003900003C08091B0008F7D8093B0000895CF930B
:1003A000DF93282F30E0F901EE53FF4F8491F901DC
:1003B000E255FF4FD491F901E656FF4FC491CC238B
:1003C00091F081110E94A601EC2FF0E0EE0FFF1FCB
:1003D000E057FF4FA591B491EC91ED2381E090E0BF
:1003E00021F480E002C080E090E0DF91CF91089599
:1003F0001F93CF93DF93282F30E0F901EE53FF4F87
:100400008491F901E255FF4FD491F901E656FF4F6F
:10041000C491CC23C1F0162F81110E94A601EC2FAC
:10042000F0E0EE0FFF1FEA57FF4FA591B4919FB781
:10043000F894111104C08C91D095D82302C0EC918E
:10044000DE2BDC939FBFDF91CF911F910895CF9357
:10045000DF9390E0FC01E255FF4F2491FC01E6564A
:10046000FF4F8491882361F190E0880F991FFC0170
:10047000E458FF4FC591D491FC01EA57FF4FA59175
:10048000B491611109C09FB7F894888120958223A7
:100490008883EC912E230BC0623061F49FB7F894EF
:1004A0008881322F309583238883EC912E2B2C93D7
:1004B0009FBF06C08FB7F894E8812E2B28838FBF8B
:1004C000DF91CF9108953FB7F89480911B019091EF
:1004D0001C01A0911D01B0911E0126B5A89B05C06D
:1004E0002F3F19F00196A11DB11D3FBFBA2FA92FB3
:1004F000982F8827820F911DA11DB11DBC01CD0130
:1005000042E0660F771F881F991F4A95D1F708951B
:100510008F929F92AF92BF92CF92DF92EF92FF9213
:100520000E9463024B015C0184E6C82ED12CE12CB1
:10053000F12C0E946302DC01CB0188199909AA09F8
:10054000BB09883E9340A105B10598F321E0C21A8A
:10055000D108E108F10888EE880E83E0981EA11CFE
:10056000B11CC114D104E104F10419F7FF90EF901C
:10057000DF90CF90BF90AF909F908F9008958F9213
:100580009F92AF92BF920F931F93CF93DF93CDB7FC
:10059000DEB7A1970FB6F894DEBF0FBECDBF19A28C
:1005A000423008F44AE08E010F5D1F4F842E912CDB
:1005B000A12CB12CA50194010E94A405E62FB9013C
:1005C000CA0101501109EA3014F4E05D01C0E95C90
:1005D000D801EC93232B242B252B61F70115110552
:1005E00071F0F80101900020E9F73197AF01401B4D
:1005F000510BB80187E291E00E94960002C080E0B2
:1006000090E0A1960FB6F894DEBF0FBECDBFDF918C
:10061000CF911F910F91BF90AF909F908F900895B1
:100620000E94CC051F920F920FB60F9211242F93A8
:100630003F934F935F936F937F938F939F93AF936A
:10064000BF93EF93FF9387E291E00E940B01FF912C
:10065000EF91BF91AF919F918F917F916F915F913A
:100660004F913F912F910F900FBE0F901F901895B3
:100670001F920F920FB60F9211242F938F939F9377
:10068000EF93FF93E0913701F09138018081E09181
:100690003D01F0913E0182FD12C0908180914001A8
:1006A0008F5F8F7320914101821751F0E0914001DB
:1006B000F0E0E95DFE4F958F8093400101C080819D
:1006C000FF91EF919F918F912F910F900FBE0F90FF
:1006D0001F9018951F920F920FB60F9211242F930F
:1006E0003F938F939F93AF93BF9380911701909106
:1006F0001801A0911901B0911A013091160123E05F
:10070000230F2D3720F40196A11DB11D05C026E849
:10071000230F0296A11DB11D20931601809317018E
:1007200090931801A0931901B0931A0180911B01B5
:1007300090911C01A0911D01B0911E010196A11D77
:10074000B11D80931B0190931C01A0931D01B093D8
:100750001E01BF91AF919F918F913F912F910F906B
:100760000FBE0F901F901895789484B5826084BD59
:1007700084B5816084BD85B5826085BD85B58160A5
:1007800085BD80916E00816080936E001092810023
:1007900080918100826080938100809181008160DE
:1007A000809381008091800081608093800080919F
:1007B000B10084608093B1008091B000816080932B
:1007C000B00080917A00846080937A0080917A00F2
:1007D000826080937A0080917A00816080937A00B1
:1007E00080917A00806880937A001092C10061E065
:1007F0008DE00E94270261E08CE00E94270261E008
:100800008BE00E94270261E08AE00E94270261E0FB
:1008100089E00E94270261E088E00E94270261E0EF
:1008200087E00E94270260E082E00E94270260E0E9
:1008300083E00E942702E0913701F091380182E0C5
:100840008083E0913301F09134011082E091350111
:10085000F09136018FEC808310923F01E0913B01D3
:10086000F0913C0186E08083E0913901F0913A01FA
:10087000808180618083E0913901F0913A0180812B
:1008800088608083E0913901F0913A01808180682D
:100890008083E0913901F0913A0180818F7D8083DE
:1008A000C9E0D0E082E00E94CF017C019093260154
:1008B0008093250183E00E94CF0120912301309194
:1008C0002401E216F30671F021E0E216F10451F47E
:1008D00020912101309122012F5F3F4F309322015F
:1008E00020932101F0922401E092230120911F0125
:1008F000309120018217930769F08130910551F4FE
:10090000209121013091220121503109309322019F
:10091000209321019093200180931F0100912101D8
:10092000109122010A30110508F0A9C0F801EC5C11
:10093000FF4F0C94C60561E08DE00E94F80161E074
:100940008CE00E94F80161E08BE00E94F80161E018
:100950008AE00E94F80161E089E00E94F80161E00C
:1009600059C060E043C061E08DE00E94F80161E0A1
:100970008CE00E94F80160E08BE00E94F80161E0E9
:100980008AE00E94F80161E011C061E08DE00E9400
:10099000F80161E08CE00E94F80161E08BE00E94C8
:1009A000F80161E08AE00E94F80160E089E00E94BD
:1009B000F80160E05BC060E08DE00E94F80161E05A
:1009C0008CE00E94F80161E08BE00E94F80160E099
:1009D00045C061E08DE00E94F80160E037C061E051
:1009E0008DE00E94F80160E01FC061E08DE00E9490
:1009F000F80161E08CE00E94F80161E08BE00E9468
:100A0000F80160E08AE00E94F80160E089E00E945D
:100A1000F80160E088E00E94F80160E02BC061E02E
:100A20008DE00E94F80161E08CE00E94F80161E035
:100A30008BE00E94F80161E08AE00E94F80161E029
:100A400011C061E08DE00E94F80161E08CE00E943D
:100A5000F80161E08BE00E94F80161E08AE00E9409
:100A6000F80160E089E00E94F80161E088E00E94FE
:100A7000F80161E087E00E94F8010E9488026801A5
:100A8000110FEE08FF08F7FE0EC06DE287E291E05D
:100A90000E942D0166277727CB016C197D098E09ED
:100AA0009F094AE003C04AE0C701B6010E94BF02A5
:100AB00042E050E062E171E087E291E00E9496003E
:100AC00080912101909122010A9724F01092220135
:100AD00010922101809121019091220197FF04C081
:100AE000D0932201C09321010E949C01DBCEE7E25A
:100AF000F1E01382128288EE93E0A0E0B0E08483FC
:100B00009583A683B78384E091E09183808385EC0D
:100B100090E09587848784EC90E09787868780ECC7
:100B200090E0918B808B81EC90E0938B828B82ECB8
:100B300090E0958B848B86EC90E0978B868B118E62
:100B4000128E138E148E0895A1E21A2EAA1BBB1BBF
:100B5000FD010DC0AA1FBB1FEE1FFF1FA217B30789
:100B6000E407F50720F0A21BB30BE40BF50B661F9F
:100B7000771F881F991F1A9469F760957095809563
:100B800090959B01AC01BD01CF010895EE0FFF1FB1
:100B90000590F491E02D099481E090E0F8940C9494
:060BA000D105F894FFCF1F
:100BA600000000002D019600C4007A01F500D30074
:060BB600E7000D0A00003B
:107E0000112484B714BE81FFF0D085E080938100F7
:107E100082E08093C00088E18093C10086E0809377
:107E2000C20080E18093C4008EE0C9D0259A86E02C
:107E300020E33CEF91E0309385002093840096BBD3
:107E4000B09BFECF1D9AA8958150A9F7CC24DD24C4
:107E500088248394B5E0AB2EA1E19A2EF3E0BF2EE7
:107E6000A2D0813461F49FD0082FAFD0023811F036
:107E7000013811F484E001C083E08DD089C08234E0
:107E800011F484E103C0853419F485E0A6D080C0E4
:107E9000853579F488D0E82EFF2485D0082F10E0AE
:107EA000102F00270E291F29000F111F8ED06801E7
:107EB0006FC0863521F484E090D080E0DECF843638
:107EC00009F040C070D06FD0082F6DD080E0C81688
:107ED00080E7D80618F4F601B7BEE895C0E0D1E017
:107EE00062D089930C17E1F7F0E0CF16F0E7DF06D8
:107EF00018F0F601B7BEE89568D007B600FCFDCFD4
:107F0000A601A0E0B1E02C9130E011968C91119780
:107F100090E0982F8827822B932B1296FA010C0160
:107F200087BEE89511244E5F5F4FF1E0A038BF0790
:107F300051F7F601A7BEE89507B600FCFDCF97BE46
:107F4000E89526C08437B1F42ED02DD0F82E2BD052
:107F50003CD0F601EF2C8F010F5F1F4F84911BD097
:107F6000EA94F801C1F70894C11CD11CFA94CF0C13
:107F7000D11C0EC0853739F428D08EE10CD085E9AC
:107F80000AD08FE07ACF813511F488E018D01DD067
:107F900080E101D065CF982F8091C00085FFFCCF94
:107FA0009093C60008958091C00087FFFCCF809118
:107FB000C00084FD01C0A8958091C6000895E0E648
:107FC000F0E098E1908380830895EDDF803219F02E
:107FD00088E0F5DFFFCF84E1DECF1F93182FE3DFCA
:107FE0001150E9F7F2DF1F91089580E0E8DFEE27F6
:047FF000FF270994CA
:027FFE00040479
:0400000300007E007B
:00000001FF
